{
  "contractName": "PredictionHash",
  "abi": [
    {
      "anonymous": false,
      "inputs": [
        {
          "indexed": true,
          "internalType": "address",
          "name": "_setter",
          "type": "address"
        },
        {
          "indexed": false,
          "internalType": "string",
          "name": "_hash",
          "type": "string"
        }
      ],
      "name": "Predict",
      "type": "event"
    },
    {
      "constant": false,
      "inputs": [
        {
          "internalType": "string",
          "name": "_hash",
          "type": "string"
        }
      ],
      "name": "create",
      "outputs": [],
      "payable": false,
      "stateMutability": "nonpayable",
      "type": "function"
    }
  ],
  "bytecode": "0x608060405234801561001057600080fd5b506101d6806100206000396000f3fe608060405234801561001057600080fd5b506004361061002b5760003560e01c8063b6a46b3b14610030575b600080fd5b6100e96004803603602081101561004657600080fd5b810190808035906020019064010000000081111561006357600080fd5b82018360208201111561007557600080fd5b8035906020019184600183028401116401000000008311171561009757600080fd5b91908080601f016020809104026020016040519081016040528093929190818152602001838380828437600081840152601f19601f8201169050808301925050505050505091929192905050506100eb565b005b3373ffffffffffffffffffffffffffffffffffffffff167f26a8282199b6a8d3f3e6934cb9e879e693fd260cfb48a65b28e9afef9270b888826040518080602001828103825283818151815260200191508051906020019080838360005b83811015610164578082015181840152602081019050610149565b50505050905090810190601f1680156101915780820380516001836020036101000a031916815260200191505b509250505060405180910390a25056fea265627a7a72315820f7a945b1625070de4c2c14d961a32ef5e31d08ac66544c4457714d8003be876364736f6c634300050c0032",
  "source": "pragma solidity >=0.4.0 <0.6.0;\ncontract PredictionHash {\n   event Predict(address indexed _setter, string _hash);\n\n   function create(string memory _hash) public {\n      emit Predict(msg.sender, _hash);\n   }\n}",
  "sourcePath": "/home/ali/Workspace/proof_of_prediction/api/truffle/contracts/PredictionHash.sol",
  "compiler": {
    "name": "solc",
    "version": "0.5.12+commit.7709ece9.Emscripten.clang"
  },
  "schemaVersion": "3.0.20",
  "updatedAt": "2021-01-19T20:08:25.772Z",
  "networkType": "ethereum",
  "devdoc": {
    "methods": {}
  },
  "userdoc": {
    "methods": {}
  }
}