{
  "contractName": "SimpleStorage",
  "abi": [
    {
      "anonymous": false,
      "inputs": [
        {
          "indexed": true,
          "internalType": "address",
          "name": "_setter",
          "type": "address"
        },
        {
          "indexed": false,
          "internalType": "uint256",
          "name": "_value",
          "type": "uint256"
        }
      ],
      "name": "SetData",
      "type": "event"
    },
    {
      "constant": false,
      "inputs": [
        {
          "internalType": "uint256",
          "name": "x",
          "type": "uint256"
        }
      ],
      "name": "set",
      "outputs": [],
      "payable": false,
      "stateMutability": "nonpayable",
      "type": "function"
    },
    {
      "constant": true,
      "inputs": [],
      "name": "get",
      "outputs": [
        {
          "internalType": "uint256",
          "name": "",
          "type": "uint256"
        }
      ],
      "payable": false,
      "stateMutability": "view",
      "type": "function"
    }
  ],
  "bytecode": "0x608060405234801561001057600080fd5b50610114806100206000396000f3fe6080604052348015600f57600080fd5b506004361060325760003560e01c806360fe47b11460375780636d4ce63c146062575b600080fd5b606060048036036020811015604b57600080fd5b8101908080359060200190929190505050607e565b005b606860d6565b6040518082815260200191505060405180910390f35b806000819055503373ffffffffffffffffffffffffffffffffffffffff167f10d7325afad389b2d1513a84eb27416d3f7cae3ddac7bc0cd24d7f4f1a006851826040518082815260200191505060405180910390a250565b6000805490509056fea265627a7a72315820bfb2ecd3c621993b7a550e22c585b4865c45f2cae9c398078dcce9ac17a64add64736f6c634300050c0032",
  "source": "pragma solidity >=0.4.0 <0.6.0;\ncontract SimpleStorage {\n   uint storedData;\n\n   event SetData(address indexed _setter, uint _value);\n\n   function set(uint x) public {\n      storedData = x;\n      emit SetData(msg.sender, x);\n   }\n\n   function get() public view returns (uint) {\n      return storedData;\n   }\n}",
  "sourcePath": "/home/ali/Workspace/proof_of_prediction/api/truffle/contracts/SimpleStorage.sol",
  "compiler": {
    "name": "solc",
    "version": "0.5.12+commit.7709ece9.Emscripten.clang"
  },
  "schemaVersion": "3.0.20",
  "updatedAt": "2020-01-02T22:09:47.854Z",
  "networkType": "ethereum",
  "devdoc": {
    "methods": {}
  },
  "userdoc": {
    "methods": {}
  }
}